:100000000C9446000C9465000C9465000C946500FB
:100010000C9465000C9465000C9465000C946500CC
:100020000C9465000C9465000C9465000C946500BC
:100030000C9465000C94A3000C9465000C9465006E
:100040000C9465000C9465000C9465000C9465009C
:100050000C9465000C9465000C9465000C9465008C
:100060000C9465000C9465000C9465000C9465007C
:100070000C9465000C9465000C9465000C9465006C
:100080000C9465000C9465000C94650011241FBE4F
:10009000CFEFD0E4DEBFCDBF11E0A0E0B1E0EEE0F5
:1000A000F3E000E00BBF02C007900D92A231B10750
:1000B000D9F711E0A2E1B1E001C01D92AA31B10768
:1000C000E1F70E9467010C9485010C940000CF9326
:1000D000C82F8A3019F48DE00E9467009091C0000B
:1000E00095FFFCCFC093C60080E090E0CF910895CB
:1000F0008BE0809381008DE790E09093890080935E
:10010000880082E080936F00109285001092840036
:100110008091000190910101A0910201B091030131
:100120008093120190931301A0931401B0931501D1
:100130008FB780688FBF089510928100089581E085
:100140008093160108951F920F920FB60F921124FB
:100150000BB60F922F933F934F935F936F937F93C1
:100160008F939F93AF93BF93EF93FF93809112016F
:1001700090911301A0911401B09115010197A1096B
:10018000B1098093120190931301A0931401B093CD
:100190001501892B8A2B8B2B91F40E949F00809153
:1001A000000190910101A0910201B091030180939F
:1001B000120190931301A0931401B0931501FF91C4
:1001C000EF91BF91AF919F918F917F916F915F91CF
:1001D0004F913F912F910F900BBE0F900FBE0F903C
:1001E0001F901895609300017093010180930201A4
:1001F0009093030160931201709313018093140193
:100200009093150108958091180190911901823001
:100210009105F1F030F4009759F08130910579F0B3
:1002200032C083309105E9F08430910519F12BC07B
:1002300081E090E0909319018093180128C0009903
:1002400002C082E090E090931901809318011FC0D2
:10025000009B02C083E090E0909319018093180105
:1002600016C0009902C084E090E090931901809339
:1002700018010DC0009B02C080E090E0909319012E
:100280008093180104C010921901109218018091F6
:100290001801909119018130910541F018F00597EE
:1002A00078F411C081E0809317010DC0809117018F
:1002B000843011F0880F01C081E08093170103C0E2
:1002C00081E0809317018091170185B9089511B8D5
:1002D0008FEF82B984B915B81092190110921801E4
:1002E00081E08093170185B96CE271E080E090E0D5
:1002F0000E94F2000E9478000E9403018091160182
:0E0300008823E1F310921601F7CFF894FFCF97
:10030E000100000000000002000000006700000075
:02031E000000DD
:00000001FF
